:020000040000FA
:10000000A0020010690100007101000073010000EE
:100010007501000077010000790100000000000078
:100020000000000000000000000000007B01000054
:100030007D010000000000007F0100008101000040
:1000400083010000830100008301000083010000A0
:100050008301000083010000830100008301000090
:100060008301000083010000830100008301000080
:100070008301000083010000830100008301000070
:100080008301000083010000830100008301000060
:100090008301000083010000830100008301000050
:1000A0008301000083010000830100008301000040
:1000B0008301000083010000830100008301000030
:1000C00083010000830100008301000000F002F8BA
:1000D00000F03AF80AA090E8000C82448344AAF1A8
:1000E0000107DA4501D100F02FF8AFF2090EBAE8A6
:1000F0000F0013F0010F18BFFB1A43F0010318475C
:10010000F406000014070000103A24BF78C878C134
:10011000FAD8520724BF30C830C144BF04680C600D
:10012000704700000023002400250026103A28BF55
:1001300078C1FBD8520728BF30C148BF0B60704759
:100140001FB51FBD10B510BD00F0A6F81146FFF792
:10015000F7FF00F0E2F900F0C4F803B4FFF7F2FF94
:1001600003BC00F041FB00000948804709480047F4
:10017000FEE7FEE7FEE7FEE7FEE7FEE7FEE7FEE757
:10018000FEE7FEE704480549034A054B70470000B7
:1001900051070000CD000000A0000010A0020010D8
:1001A000A000001053EA020C00F069802DE9F04B2A
:1001B0004FF00006002B1FBFB3FA83F503FA05F4D6
:1001C00024FA05F65E4012BF1643B2FA82F502FA2F
:1001D00005F4C5F120051EBF22FA05FC44EA0C0413
:1001E000203556EA044C4FEA144418BF641C4FF003
:1001F00000084FF00009904271EB030C39D300293D
:1002000019BFB1FA81F701FA07F6B0FA80F700FAE0
:1002100007F6C7F120071EBF20FA07FC46EA0C06C6
:100220002037B6FBF4FCA7EB0507103F07F01F0BC8
:10023000CBF120060CFA0BFB2CFA06F644BFB346B2
:100240000026202FA4BF5E464FF0000B5BEA060C91
:1002500008BF4FF0010B19EB0B09ABFB027C48EB1D
:100260000608C01B06FB02CC0BFB03CC71EB0C0198
:10027000C1E70B46024641464846BDE8F08B13B540
:100280004FF000004FF00001AFF30080BDE81C40CC
:100290007047704770477047754600F029F8AE46C2
:1002A00005006946534620F00700854618B020B582
:1002B000FFF768FFBDE820404FF000064FF0000751
:1002C0004FF000084FF0000B21F00701AC46ACE8FE
:1002D000C009ACE8C009ACE8C009ACE8C0098D466B
:1002E00070470446AFF300802046FFF736FF00005A
:1002F000004870474000001070470000FFFFFFFFFC
:1003000000BF4FF04020C06B10F0010FF9D020204B
:100310004FF04021C86396480068B0F57A7F06D157
:10032000FF209449087000209149086004E090483B
:100330000068401C8E490860704700B5FFF7E0FF79
:100340008D480068012808D18C4800688C490860F5
:100350006FF0F0608B49486325E087480068022809
:1003600008D189480068864908606FF0E0608549D7
:10037000486318E080480068032808D18348006873
:100380007F4908606FF0D0607E4948630BE07A488F
:100390000068042807D17E480068794908606FF03A
:1003A000C060784948637648007800F00F007449CF
:1003B000086078480968405C77490860084600682A
:1003C00000010860084600686E494861FFF798FF21
:1003D0004FF47F606B49C86100BD00B5FFF790FF27
:1003E00065480068401C64490860084600680528A4
:1003F00004D100200860FF205E4908705D48007845
:10040000FF282ED100205B4908705C480068401C22
:100410005A490860084600680A2822D1002008606E
:1004200059480068401C58490860084600680A2876
:1004300017D10020086055480068401C53490860E7
:10044000084600680A280CD100200860504800685F
:10045000401C4F490860084600680A2801D1002066
:100460000860FFF76AFF00BD00B5FFF749FF42488B
:100470000068401C4049086008460068052804D10F
:1004800000200860FF203B4908703A480078FF28A8
:100490002ED100203749087038480068401E37497F
:1004A000086008460068401C22D1092008603648D0
:1004B0000068401E3449086008460068401C17D197
:1004C0000920086031480068401E3049086008462D
:1004D0000068401C0CD1092008602D480068401EAF
:1004E0002B49086008460068401C01D109200860BB
:1004F000FFF723FF00BD00204FF0402108670220D6
:10050000486040F2E7308861022048612020C863DB
:100510000220C86001204860704700F019F900F01F
:1005200043F8FFF7E8FF1D4800681D4908401B49D4
:1005300008600846C06820F47F10C860002048604A
:100540004FF47F600F4908604FF0F06008620DE0E3
:100550000C48406900F40010124908600846006821
:1005600010B9FFF781FF01E0FFF737FFF0E7000068
:1005700010000010270000101400001000000010F0
:100580001800001000C0092004000010080000102E
:100590000C0000101C0000102800001000C00240D9
:1005A000FF00003F380000102DE9F0478148006847
:1005B000C0F3016003287CD17F48006810F003007D
:1005C00006D0012833D002285FD003282ED100E0C6
:1005D00000BF78480068C0F3074000F101044FF005
:1005E00002017648D0F88800C0F30E0000F1010047
:1005F000A1FB0001724B4FF0000CA0FB037901FB43
:10060000039100FB0C11224663463846FFF7CAFDF2
:1006100005466C480068C0B200F1010422464FF064
:1006200000032846FFF7BEFD674908605DE06148AA
:100630000068C0F3074000F101044FF002015F4879
:10064000D0F88800C0F30E0000F10100A1FB0010FB
:100650005E4A4FF0000CA1FB027900FB029001FB07
:100660000C01224663463846FFF79CFD0546554877
:100670000068C0B200F1010422464FF00003284692
:10068000FFF790FD504908602FE04A480068C0F32A
:10069000074000F101044FF002014848D0F88800FB
:1006A000C0F30E0000F10100A1FB00124FF4004066
:1006B00000E01BE04FF00003A1FB007902FB00907B
:1006C00001FB030122463846FFF76CFD05463D4815
:1006D0000068C0B200F1010422464FF00003284632
:1006E000FFF760FD3849086000BF2FE0324800681E
:1006F00010F0030006D0012810D0022819D00328DA
:1007000023D100E000BF2F480068C0B200F1010013
:100710002B49B1FBF0F02C49086016E0294800682D
:10072000C0B200F101002949B1FBF0F02649086090
:100730000BE024480068C0B200F101004FF4004112
:10074000B1FBF0F02049086000BF00BFBDE8F087B2
:1007500020201F4908601948D0F8A00110F0200F90
:1007600005D000BF1A48006810F0400FFAD00320EF
:100770001449086017481149C1F8A80116481749DB
:1007800008604FF001000C4908604FF00400A1F12F
:100790000401086012481349086040F2011007493B
:1007A000C1F8C8010846006820F4704040F4804059
:1007B0000860704788C00F400CC10F4000C00F4058
:1007C00000093D0004C10F403C000010001BB700B1
:1007D000A0C10F405551515555545554ACC10F400F
:1007E000DEF7EFEFC4C00F4001491820ABBEFEE7B3
:1007F0002600020014080000000000104000000065
:1008000008010000540800004000001060020000D1
:1008100024010000000000000000000000000000B3
:1008200000000000000000000000000000000000C8
:100830003F065B4F666D7D077F6F00000000000084
:1008400000000000000000000000000000000000A8
:04085000C0C62D00F1
:04000005000001698D
:00000001FF
