:020000040000FA
:10000000A0020010690100007101000073010000EE
:100010007501000077010000790100000000000078
:100020000000000000000000000000007B01000054
:100030007D010000000000007F0100008101000040
:1000400083010000830100008301000083010000A0
:100050008301000083010000830100008301000090
:100060008301000083010000830100008301000080
:100070008301000083010000830100008301000070
:100080008301000083010000830100008301000060
:100090008301000083010000830100008301000050
:1000A0008301000083010000830100008301000040
:1000B0008301000083010000830100008301000030
:1000C00083010000830100008301000000F002F8BA
:1000D00000F03AF80AA090E8000C82448344AAF1A8
:1000E0000107DA4501D100F02FF8AFF2090EBAE8A6
:1000F0000F0013F0010F18BFFB1A43F0010318475C
:100100005406000074060000103A24BF78C878C175
:10011000FAD8520724BF30C830C144BF04680C600D
:10012000704700000023002400250026103A28BF55
:1001300078C1FBD8520728BF30C148BF0B60704759
:100140001FB51FBD10B510BD00F0A6F81146FFF792
:10015000F7FF00F05DF900F0C4F803B4FFF7F2FF19
:1001600003BC00F0F1FA0000094880470948004745
:10017000FEE7FEE7FEE7FEE7FEE7FEE7FEE7FEE757
:10018000FEE7FEE704480549034A054B70470000B7
:10019000B1060000CD000000A0000010A002001079
:1001A000A000001053EA020C00F069802DE9F04B2A
:1001B0004FF00006002B1FBFB3FA83F503FA05F4D6
:1001C00024FA05F65E4012BF1643B2FA82F502FA2F
:1001D00005F4C5F120051EBF22FA05FC44EA0C0413
:1001E000203556EA044C4FEA144418BF641C4FF003
:1001F00000084FF00009904271EB030C39D300293D
:1002000019BFB1FA81F701FA07F6B0FA80F700FAE0
:1002100007F6C7F120071EBF20FA07FC46EA0C06C6
:100220002037B6FBF4FCA7EB0507103F07F01F0BC8
:10023000CBF120060CFA0BFB2CFA06F644BFB346B2
:100240000026202FA4BF5E464FF0000B5BEA060C91
:1002500008BF4FF0010B19EB0B09ABFB027C48EB1D
:100260000608C01B06FB02CC0BFB03CC71EB0C0198
:10027000C1E70B46024641464846BDE8F08B13B540
:100280004FF000004FF00001AFF30080BDE81C40CC
:100290007047704770477047754600F029F8AE46C2
:1002A00005006946534620F00700854618B020B582
:1002B000FFF768FFBDE820404FF000064FF0000751
:1002C0004FF000084FF0000B21F00701AC46ACE8FE
:1002D000C009ACE8C009ACE8C009ACE8C0098D466B
:1002E00070470446AFF300802046FFF736FF00005A
:1002F000004870474000001070470000FFFFFFFFFC
:1003000000BF4FF04020C06B10F0010FF9D020204B
:100310004FF04021C8636E480068B0F57A7F06D17F
:10032000FF206C49087000206949086004E06848B3
:100330000068401C664908607047674800680128EB
:1003400008D166480068664908606FF0F06065494A
:10035000486325E060480068022808D162480068C8
:100360005F4908606FF0E0605E49486318E05A48F2
:100370000068032808D15D480068594908606FF09B
:10038000D060584948630BE053480068042807D1FF
:1003900057480068524908606FF0C060514948638F
:1003A0004F48007800F00F004D4908605148096837
:1003B000405C514908600846006800010860084632
:1003C00000684849486100204C49086004E04B48F7
:1003D0000068401C4949086048480068B0F5FA7F49
:1003E000F5D34FF47F603F49C861704700204FF05C
:1003F000402108670220486040F2E730886102200F
:1004000048612020C8630220C8600120486070470E
:1004100000F04EF900F078F8FFF7E8FF3848006880
:1004200038490840364908600846C06820F47F1003
:10043000C8602C48006840F47F602A49086008467C
:10044000006A40F0F060086241E023480068401C08
:100450002149086008460068052801D1002008608D
:100460001C480078FF282ED100201A4908701B482C
:100470000068401E1949086008460068401C22D1E7
:100480000920086018480068401E1749086008469F
:100490000068401C17D10920086014480068401EFD
:1004A0001249086008460068401C0CD10920086009
:1004B0000F480068401E0E49086008460068401C4E
:1004C00001D109200860FFF738FFFFF719FFBCE7EB
:1004D0001000001027000010140000100000001091
:1004E0001800001000C009200400001008000010CF
:1004F0000C0000101C000010280000102C00001040
:1005000000C00240FF00003F2DE9F047814800682D
:10051000C0F3016003287CD17F48006810F003001D
:1005200006D0012833D002285FD003282ED100E066
:1005300000BF78480068C0F3074000F101044FF0A5
:1005400002017648D0F88800C0F30E0000F10100E7
:10055000A1FB0001724B4FF0000CA0FB037901FBE3
:10056000039100FB0C11224663463846FFF71AFE42
:1005700005466C480068C0B200F1010422464FF005
:1005800000032846FFF70EFE674908605DE06148FA
:100590000068C0F3074000F101044FF002015F481A
:1005A000D0F88800C0F30E0000F10100A1FB00109C
:1005B0005E4A4FF0000CA1FB027900FB029001FBA8
:1005C0000C01224663463846FFF7ECFD05465548C8
:1005D0000068C0B200F1010422464FF00003284633
:1005E000FFF7E0FD504908602FE04A480068C0F37B
:1005F000074000F101044FF002014848D0F888009C
:10060000C0F30E0000F10100A1FB00124FF4004006
:1006100000E01BE04FF00003A1FB007902FB00901B
:1006200001FB030122463846FFF7BCFD05463D4865
:100630000068C0B200F1010422464FF000032846D2
:10064000FFF7B0FD3849086000BF2FE0324800686E
:1006500010F0030006D0012810D0022819D003287A
:1006600023D100E000BF2F480068C0B200F10100B4
:100670002B49B1FBF0F02C49086016E029480068CE
:10068000C0B200F101002949B1FBF0F02649086031
:100690000BE024480068C0B200F101004FF40041B3
:1006A000B1FBF0F02049086000BF00BFBDE8F08753
:1006B00020201F4908601948D0F8A00110F0200F31
:1006C00005D000BF1A48006810F0400FFAD0032090
:1006D0001449086017481149C1F8A801164817497C
:1006E00008604FF001000C4908604FF00400A1F1D0
:1006F0000401086012481349086040F201100749DC
:10070000C1F8C8010846006820F4704040F48040F9
:100710000860704788C00F400CC10F4000C00F40F8
:1007200000093D0004C10F403C000010001BB70051
:10073000A0C10F405551515555545554ACC10F40AF
:10074000DEF7EFEFC4C00F4001491820ABBEFEE753
:1007500026000200740700000000001040000000A6
:1007600008010000B4070000400000106002000013
:100770002401000009000000090000000900000039
:100780000900000000000000000000000000000060
:100790003F065B4F666D7D077F6F00000000000025
:1007A0000000000000000000000000000000000049
:0407B000C0C62D0092
:04000005000001698D
:00000001FF
