:020000040000FA
:1000000098020010690100007101000073010000F6
:100010007501000077010000790100000000000078
:100020000000000000000000000000007B01000054
:100030007D010000000000007F0100008101000040
:1000400083010000830100008301000083010000A0
:100050008301000083010000830100008301000090
:100060008301000083010000830100008301000080
:100070008301000083010000830100008301000070
:100080008301000083010000830100008301000060
:100090008301000083010000830100008301000050
:1000A0008301000083010000830100008301000040
:1000B0008301000083010000830100008301000030
:1000C00083010000830100008301000000F002F8BA
:1000D00000F03AF80AA090E8000C82448344AAF1A8
:1000E0000107DA4501D100F02FF8AFF2090EBAE8A6
:1000F0000F0013F0010F18BFFB1A43F0010318475C
:100100002806000048060000103A24BF78C878C1CD
:10011000FAD8520724BF30C830C144BF04680C600D
:10012000704700000023002400250026103A28BF55
:1001300078C1FBD8520728BF30C148BF0B60704759
:100140001FB51FBD10B510BD00F0A6F81146FFF792
:10015000F7FF00F066FA00F0C4F803B4FFF7F2FF0F
:1001600003BC00F0DBFA000009488047094800475B
:10017000FEE7FEE7FEE7FEE7FEE7FEE7FEE7FEE757
:10018000FEE7FEE704480549034A054B70470000B7
:10019000A9040000CD000000980000109802001093
:1001A0009800001053EA020C00F069802DE9F04B32
:1001B0004FF00006002B1FBFB3FA83F503FA05F4D6
:1001C00024FA05F65E4012BF1643B2FA82F502FA2F
:1001D00005F4C5F120051EBF22FA05FC44EA0C0413
:1001E000203556EA044C4FEA144418BF641C4FF003
:1001F00000084FF00009904271EB030C39D300293D
:1002000019BFB1FA81F701FA07F6B0FA80F700FAE0
:1002100007F6C7F120071EBF20FA07FC46EA0C06C6
:100220002037B6FBF4FCA7EB0507103F07F01F0BC8
:10023000CBF120060CFA0BFB2CFA06F644BFB346B2
:100240000026202FA4BF5E464FF0000B5BEA060C91
:1002500008BF4FF0010B19EB0B09ABFB027C48EB1D
:100260000608C01B06FB02CC0BFB03CC71EB0C0198
:10027000C1E70B46024641464846BDE8F08B13B540
:100280004FF000004FF00001AFF30080BDE81C40CC
:100290007047704770477047754600F029F8AE46C2
:1002A00005006946534620F00700854618B020B582
:1002B000FFF768FFBDE820404FF000064FF0000751
:1002C0004FF000084FF0000B21F00701AC46ACE8FE
:1002D000C009ACE8C009ACE8C009ACE8C0098D466B
:1002E00070470446AFF300802046FFF736FF00005A
:1002F000004870473800001070470000FFFFFFFF04
:100300002DE9F04781480068C0F3016003287CD1E3
:100310007F48006810F0030006D0012833D002287F
:100320005FD003282ED100E000BF78480068C0F3FA
:10033000074000F101044FF002017648D0F8880030
:10034000C0F30E0000F10100A1FB0001724B4FF061
:10035000000CA0FB037901FB039100FB0C1122466A
:1003600063463846FFF71EFF05466C480068C0B27A
:1003700000F1010422464FF000032846FFF712FF68
:10038000674908605DE061480068C0F3074000F11C
:1003900001044FF002015F48D0F88800C0F30E005E
:1003A00000F10100A1FB00105E4A4FF0000CA1FB20
:1003B000027900FB029001FB0C012246634638469D
:1003C000FFF7F0FE054655480068C0B200F1010491
:1003D00022464FF000032846FFF7E4FE504908602C
:1003E0002FE04A480068C0F3074000F101044FF0D5
:1003F00002014848D0F88800C0F30E0000F1010067
:10040000A1FB00124FF4004000E01BE04FF000039E
:10041000A1FB007902FB009001FB03012246384654
:10042000FFF7C0FE05463D480068C0B200F1010478
:1004300022464FF000032846FFF7B4FE3849086013
:1004400000BF2FE03248006810F0030006D00128FA
:1004500010D0022819D0032823D100E000BF2F4874
:100460000068C0B200F101002B49B1FBF0F02C494B
:10047000086016E029480068C0B200F1010029496F
:10048000B1FBF0F0264908600BE024480068C0B2D8
:1004900000F101004FF40041B1FBF0F02049086089
:1004A00000BF00BFBDE8F08720201F490860194841
:1004B000D0F8A00110F0200F05D000BF1A48006846
:1004C00010F0400FFAD00320144908601748114972
:1004D000C1F8A8011648174908604FF001000C49FF
:1004E00008604FF00400A1F10401086012481349AC
:1004F000086040F201100749C1F8C80108460068C9
:1005000020F4704040F480400860704788C00F407D
:100510000CC10F4000C00F4000093D0004C10F4056
:1005200000000010001BB700A0C10F4055515155ED
:1005300055545554ACC10F40DEF7EFEFC4C00F4027
:1005400068480068012808D1674800686749086062
:100550006FF0F0606649486325E062480068022851
:1005600008D164480068614908606FF0E060604944
:10057000486318E05B480068032808D15E480068BB
:100580005A4908606FF0D060594948630BE05548FC
:100590000068042807D159480068544908606FF082
:1005A000C060534948635148007800F00F004F493C
:1005B000086053480968405C524908600846006872
:1005C00000010860084600684949486100204E491A
:1005D000086004E04C480068401C4B4908604A48E9
:1005E0000068B0F5FA7FF5D34FF47F604049C861E9
:1005F0007047002000E0401CB0F57A7FFBD34349F0
:100600000968B1F57A7F06D1FF21414A11700021B6
:100610003E4A116004E03D490968491C3B4A1160AB
:100620007047FFF741FFFFF76BFE3A4800683A4911
:100630000840384908600846C06820F47F10C86048
:100640002B48006840F47F60294908600846006A2A
:1006500040F0F060086244E0FFF7CBFF21480068FB
:10066000401C2049086008460068052804D1002085
:100670000860FF202649087025480078FF282ED101
:1006800000202349087018480068401C164908607B
:10069000084600680A2822D1002008601548006832
:1006A000401C14490860084600680A2817D1002039
:1006B000086011480068401C0F490860084600683F
:1006C0000A280CD1002008600C480068401C0B4927
:1006D0000860084600680A2801D100200860FFF77A
:1006E0002FFFB9E718000010040000101C000010D4
:1006F00000C00920080000100C00001010000010BD
:10070000200000102C000010300000101400001019
:100710002B00001000C00240FF0000FF014918201C
:10072000ABBEFEE7260002004807000000000010F4
:1007300038000000080100008007000038000010A9
:100740006002000024010000C0C62D00000000006F
:100750000000000000000000000000000000000099
:1007600000000000000000003F065B4F666D7D0743
:100770007F6F00000000000000000000000000008B
:04000005000001698D
:00000001FF
